:040000008031EC2837
:100008007E14803120007F08D2008D311425803184
:100018002000921E55285308013ED3000030543D5D
:10002800D4002200111F532820006108013EE1007E
:100038000030623DE20093306202A8300319610289
:10004800031C53280130CE000030CF000030D00010
:100058000030D1005D08CE075E08CF3D5F08D03D77
:100068006008D13D5108E0005008DF004F08DE006D
:100078004E08DD006008031D4928A0305D02863067
:100088005E3B01305F3B031C51280030E00000302C
:10009800DF000030DE000030DD00E101E201200079
:1000A8009212111CCC285408D6005308D500D3014D
:1000B800D40100305602573003195502031C662834
:1000C8003130C428003056020B300319550203188A
:1000D80081285608F9005508F8008C31EE24803143
:1000E80078082000A3007908A4007A08A5009A30AF
:1000F800A000D930A1003F309A2855085604031DA6
:100108008728EF30C4285608F9005508F8008C31C4
:10011800EE24803178082000A3007908A4007A082A
:10012800A500A430A0001030A1004030A200863104
:10013800F626803120002008B0002108B1002208EE
:10014800B2008C31BE24803120003008B60031085E
:10015800B7003208B8000030B3006F30B400433045
:10016800B50086310026803120003308C0003408ED
:10017800C1003508C2008F3179278031200040083E
:10018800CE004E08DC0045309700FD309600111077
:1001980091188D1BE0285B085C060319DE285C08B3
:1001A800CE004E08DB005C082800960020008C1466
:1001B8002800171520009110931CE8288C1028009F
:1001C80017119501200093105208FF007E100900B6
:1001D8008031EE288C31B5248031E3008C31B6248F
:1001E8008031E4008C31B7248031E5008C31B824AB
:1001F800E600FC01FD01D301D401D501D601D701E8
:10020800D801D901DA01DB01DC012100E901EA01A9
:10021800EB01EC01ED01EE017E1020008131142983
:10022800210099019501043023008C008D010430D0
:1002380021008C0092308D00803024008D00200039
:100248008C018D01D8308B00C03022009800063018
:100258009900D4309100D2309200200092122100EF
:100268009216200011102100111420009110210075
:10027800911420009310210093141130200098004D
:1002880045309700FD3096004E309C00F7309B00BB
:100298002530280097005330960000302300920044
:1002A800023091003F302100D2005208230095050A
:1002B800151413082100D200D301D401D501550823
:1002C8002000E000210054082000DF00210053082E
:1002D8002000DE00210052082000DD000830DD3556
:1002E800DE0DDF0DE00D890B73290030230092002D
:1002F800013091003F302100D200520823009505BB
:10030800151420005D082100D20020005E0821009D
:10031800D30020005F082100D400200060082100DD
:10032800D500230013082100D600D701D801D90130
:100338005608D2045708D3045808D4045908D504D9
:1003480055082000E000210054082000DF002100AB
:1003580053082000DE00210052082000DD0008308C
:10036800DD35DE0DDF0DE00D890BB4292300910189
:1003780092013F302100D200520823009505151440
:1003880020005D082100D20020005E082100D30073
:1003980020005F082100D400200060082100D5005B
:1003A800230013082100D600D701D801D901560827
:1003B800D2045708D3045808D4045908D50455085A
:1003C8002000E000210054082000DF00210053082D
:1003D8002000DE00210052082000DD00003023004C
:1003E8009200043091003F302100D20052082300CF
:1003F8009505151413082100D200D30152082000D6
:10040800E100210053082000E2000830E135E20D48
:10041800890B0A2A003023009200033091003F30F4
:100428002100D20052082300950515142000610808
:10043800230013042100D200200062082100D30009
:1004480052082000E100210053082000E200600863
:10045800031D362AA0305D0286305E3B01305F3BCB
:10046800031C3E2A0030E0000030DF000030DE00D0
:100478000030DD0093306202A93003196102031CC9
:10048800472AE101E20101302100A0000030A1006B
:100498008D314225813100302100AC00AD003F3064
:1004A800AE000030AF000030B000B1000830B2003C
:1004B8000030B3008E31F726813100302100AB00C7
:1004C800AC000030AD00AE008D31282581314730B9
:1004D8002100A8008830A9008D31DE258131013046
:1004E8002100AB000030AC000130AD000030AE00A0
:1004F8008D312825813137302100A8008830A900A6
:100508008D31DE25813110302100D3003930D20001
:100518000D30890B8D2AD20B8D2AD30B8D2A0032F0
:100528008D317925813120008D1BE22A8D152E30E1
:100538002100B8008830B900200060082100BD0003
:1005480020005F082100BC0020005E082100BB00DD
:1005580020005D082100BA00200056082100BF00D5
:10056800200055082100BE00DA308431732481311F
:1005780000302100AB00AC000030AD00AE008D3182
:100588002825813125302100A8008830A9008D3127
:10059800DE25813100302100AB00AC000130AD0018
:1005A8000030AE008D3128258131DA302100A800D5
:1005B8000030A9008D31DE258131972A2100911064
:1005C80020008D158D317925813100302100AB0057
:1005D800AC000030AD00AE008D31282581313F30B0
:1005E8002100A8008830A9008D31DE258131033033
:1005F8002100AB000030AC000130AD000030AE008F
:100608008D31282581314E302100A8008830A9007D
:100618008D31DE25813120005D082100D20052088D
:10062800E20020005D082100D20020005E082100C1
:10063800D30020005F082100D400200060082100BA
:10064800D5000830D536D40CD30CD20C890B262B08
:100658005308E8005208E7006708D2005208E30090
:1006680020005D082100D20020005E082100D30090
:1006780020005F082100D400200060082100D50078
:100688001030D536D40CD30CD20C890B452B53081B
:10069800E8005208E7006708D2005208E40020008A
:1006A80061082100D2005208E500200062082100FC
:1006B800D300200061082100D2005308D200D301E2
:1006C8005208E7005308E8006708D2005208E6001D
:1006D8002300910192013F302100D20052082300EB
:1006E8009505151413082100620603199A2B230097
:1006F80095187B2B91019201210062082300930039
:100708003F302100D2005208230095052000031035
:100718008B1B03148B132300151555309600AA3034
:10072800960095141511200003188B17003023002C
:100738009200013091003F302100D200520823007E
:10074800950515141308210063060319CC2B230003
:100758009518AB2B003092000130910021006308FE
:10076800230093003F302100D20052082300950552
:10077800200003108B1B03148B1323001515553011
:100788009600AA30960095141511200003188B17AF
:10079800003023009200023091003F302100D20047
:1007A800520823009505151413082100640603193F
:1007B800FE2B23009518DD2B0030920002309100AB
:1007C80021006408230093003F302100D200520822
:1007D80023009505200003108B1B03148B132300A3
:1007E800151555309600AA3096009514151120005D
:1007F80003188B17003023009200033091003F301C
:100808002100D20052082300950515141308210071
:1008180065060319302C230095180F2C0030920020
:100828000330910021006508230093003F30210028
:10083800D200520823009505200003108B1B0314D7
:100848008B132300151555309600AA309600951481
:100858001511200003188B17003023009200043074
:1008680091003F302100D20052082300950515144D
:100878001308210066060319622C23009518412CE1
:100888000030920004309100210066082300930094
:100898003F302100D20052082300950520000310A4
:1008A8008B1B03148B132300151555309600AA30A3
:1008B800960095141511200003188B170B30210092
:1008C800D3002630D2005D30890B682CD20B682CFF
:1008D800D30B682C003220008D118031EC282100C8
:1008E800CE00BA30C0004008CC003908C100380832
:1008F800C000B80A0319B90A4008840041088500F5
:100908000008C2004208D10051080319FA2D253009
:10091800510603199B2C5108C0004E088600870118
:10092800400881000130C0004008CE07792CCF0173
:10093800D001CD01A42C4D150130B8070030B93DC8
:1009480038088400390885000008303A03199F2CBC
:10095800AD2C380884003908850000088C31DF2464
:100968008431031CF02C2100CF01D0010A30210072
:10097800A0000030A1005008A3004F08A2008D314C
:100988005D25843121002108D0002008CF003808D7
:100998008400390885000008D03EC000FF300318E5
:1009A8000030C1004008CF074108D03D0130B807EA
:1009B8000030B93D380884003908850000088C31BA
:1009C800DF248431031CF02CBA2C4D16F02CC030D7
:1009D800C0004008CD04082D21003908C10038089E
:1009E800C000B80A0319B90A400884004108850004
:1009F8000008D100003A0319FA2D6C3A0319E92CC2
:100A0800193A0319EB2C792C4D1E172D4C0886002A
:100A18008701403FC800413FC900423FCA00433FE9
:100A2800CB000430252D4C0886008701403FC000CC
:100A3800413FC1004008C8004108C900CA01CB01B4
:100A48000230C0004008CC07D101D10A0A30510653
:100A580003195B2D5108C000C101C035C10DC03557
:100A6800C10DFD30400784008730413D8500003FBF
:100A7800C200013FC300023FC400033FC500450850
:100A88004B02031D512D44084A02031D512D4308F2
:100A98004902031D512D42084802031C5B2D0130F9
:100AA800C0004008D1070A305106031D2E2D5108F9
:100AB800C000C101C01BC1034108803AC2005008F0
:100AC800803A4202031D6A2D4F0840020318772D11
:100AD80021005108C000C101C01BC1034008CF025A
:100AE8004108D03B7A2D2100CF01D0014D1D902D1A
:100AF8004F0850040319A72D3030C0004E08860057
:100B08008701400881000130C0004008CE07FF304F
:100B1800CF07FF30D03D7C2D4F0850040319A72D77
:100B28002030C0004E08860087014008810001304F
:100B3800C0004008CE07FF30CF07FF30D03D4F0838
:100B48005004031D942D5108C600C701C61BC703D6
:100B5800FF30C607FF30C73D460A0319470A031985
:100B6800792C0030B1000030B0000030AF000A30FE
:100B7800AE0047088500460884008435850D843515
:100B8800850DFD3084078730853D003FA000013F7B
:100B9800A100023FA200033FA3004B08A7004A0898
:100BA800A6004908A5004808A4008731AA2784316F
:100BB80021002308B5002208B4002108B30020084A
:100BC800B2008E315026843121002E08303EC000FC
:100BD8004008D1005108C0004E088600870140082F
:100BE80081000130C0004008CE07AC2D21004E081E
:100BF800860087018101080020003308B900340805
:100C0800BA003508BB0003103A0D3B0DBC003C0888
:100C1800BF003608B9003708BA003808BB0003100F
:100C28003A0D3B0DBC003C08BE003F080319282EB6
:100C38003E083F0203182F2E3F03FF3A3E07B90034
:100C480019303902031C2F2E3608B3003708B400B8
:100C58003808B50008003E08031908003F083E029E
:100C680003183E2E3E03FF3A3F07B90019303902F8
:100C7800031808000630B9003908BD00B51BBD17B8
:100C8800B81B3D17B417FF30B305FF30B40500306B
:100C9800B505B717FF30B605FF30B7050030B80502
:100CA8003E083F0203187A2E0130B635B70DB80D4D
:100CB800890B592E0130BE023E083F060319752ED6
:100CC8000130BD023D0807390319752E582E013031
:100CD800B536B40CB30C890B6C2E0130B900390849
:100CE800BF073F083E0603199F2E6B2E3F083E02A2
:100CF80003189F2E0130B335B40DB50D890B7F2E27
:100D08000130BF023E083F0603199B2E0130BD0289
:100D18003D08073903199B2E7E2E0130B836B70CD3
:100D2800B60C890B922E0130B9003908BE073F086E
:100D38003E06031D912EBD1FB12EFF30B306FF30B6
:100D4800B406FF30B5060130B30700300318013090
:100D5800B407003003180130B5073D1FC32EFF301C
:100D6800B606FF30B706FF30B8060130B6070030C8
:100D780003180130B707003003180130B807BD0168
:100D88003308B6073408B73D3508B83DB81FDE2E1E
:100D9800FF30B606FF30B706FF30B8060130B60799
:100DA800003003180130B707003003180130B807C6
:100DB800BD01BD0A3608F0003708F1003808F20016
:100DC8003F08B9003908F3003D08BA003A08F400B2
:100DD8008E31932670082000B3007108B4007208A1
:100DE800B500080020002008A6002108A700220856
:100DF800A8000310270D280DA9002908AA002A0811
:100E0800031D0D2F0030A0000030A1000030A2000B
:100E180008002308A6002408A7002508A800031036
:100E2800270D280DA9002908AF002F08031D232F1F
:100E38000030A0000030A1000030A20008002F08F8
:100E48007B3EA6002608AA072008A6002108A700BE
:100E58002208A8001030A836A70CA60C890B2F2F43
:100E68002608A9002908AF002308A6002408A7001F
:100E78002508A8001030A836A70CA60C890B3F2F10
:100E88002608A9002908AF068030A6002608AF0565
:100E9800A117A417FF30A305FF30A4050030A5054E
:100EA8000030AB000030AC000030AD000730A600C9
:100EB8002608AE00201C662F2308AB072408AC3D8B
:100EC8002508AD3D0130A236A10CA00C890B672F77
:100ED8000130A335A40DA50D890B6D2F0130AE028D
:100EE800031D5E2F0930A6002608AE00201C822FA5
:100EF8002308AB072408AC3D2508AD3D0130A236D8
:100F0800A10CA00C890B832F0130AD36AC0CAB0CB7
:100F1800890B892F0130AE02031D7A2F2B08F000B0
:100F28002C08F1002D08F2002A08A6002608F30074
:100F38002F08A7002708F4008E3193267008200098
:100F4800A0007108A1007208A2000800003021006A
:100F5800AC000030AB000030AA000030A900230824
:100F68002204210420040319F42FAD01AD0AA31BA8
:100F7800C92F0130A035A10DA20DA30D890BBE2FDD
:100F88000130A8002808AD07BB2F0130A935AA0DEC
:100F9800AB0DAC0D890BCA2F23082702031DDE2FCA
:100FA80022082602031DDE2F21082502031DDE2F3D
:100FB80020082402031CE92F2008A4022108A53BCD
:100FC8002208A63B2308A73B29140130A336A20C0C
:100FD800A10CA00C890BEA2F0130AD02031DC92F0B
:100FE8002C08A3002B08A2002A08A1002908A000A9
:100FF800080001340034003400340A34003400346A
:1010080000346434003400340034E83403340034E9
:1010180000341034273400340034A03486340134CA
:101028000034403442340F340034803496349834D9
:1010380000340034E134F53405340034CA349A34C9
:101048003B344F3444344F342034203453345034F8
:10105800443400342534303435346C347534253414
:10106800333475340034453456344F344C345634A4
:101078004534443400344D344F34563441344234CA
:101088004C344534003453345434523445344134A8
:101098004D340034533454345534463446340034D3
:10196A0000340034403400341130890BBA2C0000A2
:10197A0008002000320831043004031908008030BE
:10198A00B20608002100E901EA0105308C31D024B1
:10199A002400161508002100A100210824001405BE
:1019AA002100A000240016081F3921002004031971
:1019BA000800D22C2100A100A0013A30210203180C
:1019CA00EC2C30302102031CEC2CA001A00A200CC4
:1019DA0008007808F0007908F100F2018E30FB0067
:1019EA007B08F300F4018E3193267008F800710821
:1019FA00F9007208FA0008001A302100A200F83033
:101A0A00890B052DA20B052D000001302100A00233
:101A1A000030A13B2008210403190800012D2000F1
:101A2A00911D1E2D57035804031D1D2DD701D801E2
:101A3A009111921D080001302100E9000030EA00EE
:101A4A00200092110800200066082100B200200040
:101A5A0065082100B100200064082100B0002000C0
:101A6A0063082100AF002D35AF3E860087010108CB
:101A7A002B0780388D31BA25080080302400940065
:101A8A0028309500210020082104031D502D133011
:101A9A0024009200542D0430240092009413210053
:101AAA00911592150B178B172000911192110800AE
:101ABA002100A401A501201C662D2208A4072308E1
:101ACA00A53D0130A235A30D890B672D0130A13642
:101ADA00A00C890B6C2D20082104031D602D2508FC
:101AEA00A1002408A000080001308D31BA258D31EB
:101AFA0003302100AB00DA30890B812DAB0B812D2D
:101B0A00000002308D31BA258D3103302100AB003F
:101B1A00DA30890B8E2DAB0B8E2D00002100ED01E2
:101B2A00EE0108002100A200E901EA0105308C312A
:101B3A00D0248D31210069036A0403190800013099
:101B4A002000D7000030D80021002208240091008C
:101B5A00200057085804031DAD2D210069036A04AB
:101B6A00031908002400160808002100AA003E30C4
:101B7A00A2000030A3000030A400A5008E31132675
:101B8A008D3121002308A9002208A8002808290469
:101B9A00031DD82D80308D3197258D3121002A08DB
:101BAA008D3197258D318C31C7248D318C31B924F3
:101BBA0008003E302100A2000030A3000030A4003B
:101BCA00A5008E3113268D3121002308AC0022088E
:101BDA00AB002B082C04031D102E40308D319725A5
:101BEA008D31210028088400290885001200031974
:101BFA00102E2100280884002908850000088D314C
:101C0A0097258D3101302100A8070030A93D8C317C
:101C1A00B9248D31F62D8C31C72408002100E90141
:101C2A00EA0105308C31D0248E3124001614053097
:101C3A008C31D0248E31210069036A04031D2A2EB7
:101C4A00FF30A200FF30A300080001302000D700B7
:101C5A000030D800210022352407240091002000FA
:101C6A0057085804031D342E210069036A04031D12
:101C7A00432EFF30A200FF30A30008002400160EF6
:101C8A00890C890C01392100A600A7012608A200A7
:101C9A002708A30008002100310830042F042E046D
:101CAA0003198A2EB701B70AB11B672E0130AE3568
:101CBA00AF0DB00DB10D890B5C2E0130B6003608A0
:101CCA00B707592E31083502031D752E3008340224
:101CDA00031D752E2F083302031D752E2E0832029E
:101CEA00031C7F2E2E08B2022F08B33B3008B43BE8
:101CFA003108B53B0130B136B00CAF0CAE0C890BD4
:101D0A00802E0130B702031D672E3508B100340852
:101D1A00B0003308AF003208AE0008007308031998
:101D2A009B2E720871047004031DAC2E0030F00063
:101D3A000030F1000030F20008000130F5007508AB
:101D4A00F3070130F236F10CF00C890BA72EFE30A6
:101D5A0072050319C52EA22E0130F5007508F30786
:101D6A000130F007003003180130F1070030031882
:101D7A000130F2070130F236F10CF00C890BC02E5B
:101D8A00FF3072050319D22EB12E0130F302013051
:101D9A00F035F10DF20D890BCD2EF11BD82E023044
:101DAA0073020318CA2E7318E02EFF30F0057F3035
:101DBA00F105FF30F2050310F30C7308F500F60184
:101DCA00F7011030F535F60DF70D890BE72E75087A
:101DDA00F0047608F1047708F2047408031908007D
:101DEA00F217080021003308FD003208FC00043015
:101DFA00A0000030A1008D3101258E31383021003C
:101E0A00EB000030EC006B088D31BA258E31393089
:101E1A008D31BA258E3114308D31BA258E310F307D
:101E2A0021002E05B40000302F05B50070303404AF
:101E3A00B90000303504BA0039088D31BA258E311F
:101E4A0021002F08B5002E08B4000430B600350D65
:101E5A00B50CB40CB60B2C2F03303405B700003088
:101E6A003505B80050303704B90000303804BA00DC
:101E7A002C032D04031D472F08303904B900003004
:101E8A003A04BA0030033104031D512F04303904D7
:101E9A00B90000303A04BA003A082000DA002100FA
:101EAA0039082000D900210039088D31BA258E3130
:101EBA006C308D31BA258E3114302100A0000030EB
:101ECA00A1008D3101258E3121006B088D31BA2593
:101EDA008E310C308D31BA258E3106308D31BA25CE
:101EEA008E318D317925080020004008C400410850
:101EFA00C5004208C6000310450D460DC700470835
:101F0A00CD004D08031D922F0030C3000030C200DF
:101F1A000030C1000030C00008004008C400410879
:101F2A00C5004208C6001730C636C50CC40C890B5A
:101F3A00992F4408C7004708C800C117FF30C005D9
:101F4A00FF30C1050030C2054008C9004108CA0077
:101F5A004208CB00CC018E30CD02CD1FD02F4D08C8
:101F6A00803A8F3E0318C22F0030C3000030C200EF
:101F7A000030C1000030C00008000130CC36CB0C64
:101F8A00CA0CC90C890BC32F0130C4004408CD0701
:101F9A000319E92FC22F18304D02031CE62F003017
:101FAA00C3000030C2000030C1000030C000080089
:101FBA000130C935CA0DCB0DCC0D890BDE2F01308E
:101FCA00CD024D08031DDD2F48080319F72FC90953
:101FDA00CA09CB09CC09C90A0319CA0A0319CB0AC7
:101FEA000319CC0A4C08C3004B08C2004A08C100B6
:061FFA004908C0000800C8
:020000040001F9
:04000E0087CFFFDABF
:00000001FF
